{
  "_format": "hh-sol-artifact-1",
  "contractName": "Creators",
  "sourceName": "contracts/Creators.sol",
  "abi": [
    {
      "inputs": [
        {
          "internalType": "address",
          "name": "_marketplaceAddress",
          "type": "address"
        }
      ],
      "stateMutability": "nonpayable",
      "type": "constructor"
    },
    {
      "anonymous": false,
      "inputs": [
        {
          "indexed": true,
          "internalType": "string",
          "name": "username",
          "type": "string"
        },
        {
          "indexed": true,
          "internalType": "string",
          "name": "nftCollectionSymbol",
          "type": "string"
        }
      ],
      "name": "UserRegistered",
      "type": "event"
    },
    {
      "inputs": [
        {
          "internalType": "address",
          "name": "_address",
          "type": "address"
        }
      ],
      "name": "getCreatorAddressByAddress",
      "outputs": [
        {
          "internalType": "address",
          "name": "",
          "type": "address"
        }
      ],
      "stateMutability": "view",
      "type": "function"
    },
    {
      "inputs": [],
      "name": "getCreatorAddressBySender",
      "outputs": [
        {
          "internalType": "address",
          "name": "",
          "type": "address"
        }
      ],
      "stateMutability": "view",
      "type": "function"
    },
    {
      "inputs": [
        {
          "internalType": "string",
          "name": "username",
          "type": "string"
        }
      ],
      "name": "getCreatorAddressByUsername",
      "outputs": [
        {
          "internalType": "address",
          "name": "",
          "type": "address"
        }
      ],
      "stateMutability": "view",
      "type": "function"
    },
    {
      "inputs": [
        {
          "internalType": "address",
          "name": "user",
          "type": "address"
        }
      ],
      "name": "isUserRegistered",
      "outputs": [
        {
          "internalType": "bool",
          "name": "",
          "type": "bool"
        }
      ],
      "stateMutability": "view",
      "type": "function"
    },
    {
      "inputs": [],
      "name": "marketplaceAddress",
      "outputs": [
        {
          "internalType": "address",
          "name": "",
          "type": "address"
        }
      ],
      "stateMutability": "view",
      "type": "function"
    },
    {
      "inputs": [
        {
          "internalType": "string",
          "name": "username",
          "type": "string"
        },
        {
          "internalType": "string",
          "name": "name",
          "type": "string"
        },
        {
          "internalType": "string",
          "name": "bio",
          "type": "string"
        },
        {
          "internalType": "string",
          "name": "profilePicUrl",
          "type": "string"
        },
        {
          "internalType": "string",
          "name": "nftCollectionName",
          "type": "string"
        },
        {
          "internalType": "string",
          "name": "nftCollectionSymbol",
          "type": "string"
        }
      ],
      "name": "registerUser",
      "outputs": [],
      "stateMutability": "nonpayable",
      "type": "function"
    }
  ],
  "bytecode": "0x608060405234801561001057600080fd5b50604051620057d1380380620057d18339818101604052810190610034919061008f565b806000806101000a81548173ffffffffffffffffffffffffffffffffffffffff021916908373ffffffffffffffffffffffffffffffffffffffff16021790555050610101565b600081519050610089816100ea565b92915050565b6000602082840312156100a157600080fd5b60006100af8482850161007a565b91505092915050565b60006100c3826100ca565b9050919050565b600073ffffffffffffffffffffffffffffffffffffffff82169050919050565b6100f3816100b8565b81146100fe57600080fd5b50565b6156c080620001116000396000f3fe60806040523480156200001157600080fd5b50600436106200006a5760003560e01c8063163f7522146200006f5780633992d38514620000a55780637832a0d114620000db578063ad61344414620000fb578063c2eda9de146200011d578063daa17f491462000153575b600080fd5b6200008d600480360381019062000087919062000692565b62000175565b6040516200009c919062000926565b60405180910390f35b620000c36004803603810190620000bd919062000692565b6200020d565b604051620000d2919062000909565b60405180910390f35b620000f96004803603810190620000f3919062000703565b62000276565b005b6200010562000526565b60405162000114919062000909565b60405180910390f35b6200013b6004803603810190620001359190620006be565b6200058d565b6040516200014a919062000909565b60405180910390f35b6200015d620005d7565b6040516200016c919062000909565b60405180910390f35b60008073ffffffffffffffffffffffffffffffffffffffff16600260008473ffffffffffffffffffffffffffffffffffffffff1673ffffffffffffffffffffffffffffffffffffffff16815260200190815260200160002060009054906101000a900473ffffffffffffffffffffffffffffffffffffffff1673ffffffffffffffffffffffffffffffffffffffff1614159050919050565b6000600260008373ffffffffffffffffffffffffffffffffffffffff1673ffffffffffffffffffffffffffffffffffffffff16815260200190815260200160002060009054906101000a900473ffffffffffffffffffffffffffffffffffffffff169050919050565b60006003876040516200028a9190620008f0565b908152602001604051809103902060009054906101000a900473ffffffffffffffffffffffffffffffffffffffff169050600073ffffffffffffffffffffffffffffffffffffffff168173ffffffffffffffffffffffffffffffffffffffff16146200032d576040517f08c379a00000000000000000000000000000000000000000000000000000000081526004016200032490620009da565b60405180910390fd5b60008787878787876040516200034390620005fb565b620003549695949392919062000943565b604051809103906000f08015801562000371573d6000803e3d6000fd5b5090508073ffffffffffffffffffffffffffffffffffffffff1663f2fde38b336040518263ffffffff1660e01b8152600401620003af919062000909565b600060405180830381600087803b158015620003ca57600080fd5b505af1158015620003df573d6000803e3d6000fd5b5050505080600189604051620003f69190620008f0565b908152602001604051809103902060006101000a81548173ffffffffffffffffffffffffffffffffffffffff021916908373ffffffffffffffffffffffffffffffffffffffff16021790555080600260003373ffffffffffffffffffffffffffffffffffffffff1673ffffffffffffffffffffffffffffffffffffffff16815260200190815260200160002060006101000a81548173ffffffffffffffffffffffffffffffffffffffff021916908373ffffffffffffffffffffffffffffffffffffffff16021790555082604051620004d09190620008f0565b604051809103902088604051620004e89190620008f0565b60405180910390207f996d7324173609959370942b1ee1b743dc623b3d50459e66c1d55df55e5a9f3760405160405180910390a35050505050505050565b6000600260003373ffffffffffffffffffffffffffffffffffffffff1673ffffffffffffffffffffffffffffffffffffffff16815260200190815260200160002060009054906101000a900473ffffffffffffffffffffffffffffffffffffffff16905090565b6000600182604051620005a19190620008f0565b908152602001604051809103902060009054906101000a900473ffffffffffffffffffffffffffffffffffffffff169050919050565b60008054906101000a900473ffffffffffffffffffffffffffffffffffffffff1681565b614aca8062000bc183390190565b6000620006206200061a8462000a25565b620009fc565b9050828152602081018484840111156200063957600080fd5b6200064684828562000ac2565b509392505050565b6000813590506200065f8162000ba6565b92915050565b600082601f8301126200067757600080fd5b81356200068984826020860162000609565b91505092915050565b600060208284031215620006a557600080fd5b6000620006b5848285016200064e565b91505092915050565b600060208284031215620006d157600080fd5b600082013567ffffffffffffffff811115620006ec57600080fd5b620006fa8482850162000665565b91505092915050565b60008060008060008060c087890312156200071d57600080fd5b600087013567ffffffffffffffff8111156200073857600080fd5b6200074689828a0162000665565b965050602087013567ffffffffffffffff8111156200076457600080fd5b6200077289828a0162000665565b955050604087013567ffffffffffffffff8111156200079057600080fd5b6200079e89828a0162000665565b945050606087013567ffffffffffffffff811115620007bc57600080fd5b620007ca89828a0162000665565b935050608087013567ffffffffffffffff811115620007e857600080fd5b620007f689828a0162000665565b92505060a087013567ffffffffffffffff8111156200081457600080fd5b6200082289828a0162000665565b9150509295509295509295565b6200083a8162000a82565b82525050565b6200084b8162000a96565b82525050565b60006200085e8262000a5b565b6200086a818562000a66565b93506200087c81856020860162000ad1565b620008878162000b6c565b840191505092915050565b60006200089f8262000a5b565b620008ab818562000a77565b9350620008bd81856020860162000ad1565b80840191505092915050565b6000620008d860178362000a66565b9150620008e58262000b7d565b602082019050919050565b6000620008fe828462000892565b915081905092915050565b60006020820190506200092060008301846200082f565b92915050565b60006020820190506200093d600083018462000840565b92915050565b600060c08201905081810360008301526200095f818962000851565b9050818103602083015262000975818862000851565b905081810360408301526200098b818762000851565b90508181036060830152620009a1818662000851565b90508181036080830152620009b7818562000851565b905081810360a0830152620009cd818462000851565b9050979650505050505050565b60006020820190508181036000830152620009f581620008c9565b9050919050565b600062000a0862000a1b565b905062000a16828262000b07565b919050565b6000604051905090565b600067ffffffffffffffff82111562000a435762000a4262000b3d565b5b62000a4e8262000b6c565b9050602081019050919050565b600081519050919050565b600082825260208201905092915050565b600081905092915050565b600062000a8f8262000aa2565b9050919050565b60008115159050919050565b600073ffffffffffffffffffffffffffffffffffffffff82169050919050565b82818337600083830152505050565b60005b8381101562000af157808201518184015260208101905062000ad4565b8381111562000b01576000848401525b50505050565b62000b128262000b6c565b810181811067ffffffffffffffff8211171562000b345762000b3362000b3d565b5b80604052505050565b7f4e487b7100000000000000000000000000000000000000000000000000000000600052604160045260246000fd5b6000601f19601f8301169050919050565b7f557365726e616d6520616c726561647920657869737473000000000000000000600082015250565b62000bb18162000a82565b811462000bbd57600080fd5b5056fe60806040523480156200001157600080fd5b5060405162004aca38038062004aca8339818101604052810190620000379190620003e7565b620000576200004b620001eb60201b60201c565b620001f360201b60201c565b84600290805190602001906200006f929190620002b7565b50856001908051906020019062000088929190620002b7565b508360039080519060200190620000a1929190620002b7565b508260049080519060200190620000ba929190620002b7565b508160059080519060200190620000d3929190620002b7565b508060069080519060200190620000ec929190620002b7565b50600060056006604051620001019062000348565b6200010e929190620005cd565b604051809103906000f0801580156200012b573d6000803e3d6000fd5b5090508073ffffffffffffffffffffffffffffffffffffffff1663f2fde38b326040518263ffffffff1660e01b8152600401620001699190620005b0565b600060405180830381600087803b1580156200018457600080fd5b505af115801562000199573d6000803e3d6000fd5b5050505080600760006101000a81548173ffffffffffffffffffffffffffffffffffffffff021916908373ffffffffffffffffffffffffffffffffffffffff16021790555050505050505050620007d2565b600033905090565b60008060009054906101000a900473ffffffffffffffffffffffffffffffffffffffff169050816000806101000a81548173ffffffffffffffffffffffffffffffffffffffff021916908373ffffffffffffffffffffffffffffffffffffffff1602179055508173ffffffffffffffffffffffffffffffffffffffff168173ffffffffffffffffffffffffffffffffffffffff167f8be0079c531659141344cd1fd0a4f28419497f9722a3daafe3b4186f6b6457e060405160405180910390a35050565b828054620002c590620006f7565b90600052602060002090601f016020900481019282620002e9576000855562000335565b82601f106200030457805160ff191683800117855562000335565b8280016001018555821562000335579182015b828111156200033457825182559160200191906001019062000317565b5b50905062000344919062000356565b5090565b61383f806200128b83390190565b5b808211156200037157600081600090555060010162000357565b5090565b60006200038c620003868462000631565b62000608565b905082815260208101848484011115620003a557600080fd5b620003b2848285620006c1565b509392505050565b600082601f830112620003cc57600080fd5b8151620003de84826020860162000375565b91505092915050565b60008060008060008060c087890312156200040157600080fd5b600087015167ffffffffffffffff8111156200041c57600080fd5b6200042a89828a01620003ba565b965050602087015167ffffffffffffffff8111156200044857600080fd5b6200045689828a01620003ba565b955050604087015167ffffffffffffffff8111156200047457600080fd5b6200048289828a01620003ba565b945050606087015167ffffffffffffffff811115620004a057600080fd5b620004ae89828a01620003ba565b935050608087015167ffffffffffffffff811115620004cc57600080fd5b620004da89828a01620003ba565b92505060a087015167ffffffffffffffff811115620004f857600080fd5b6200050689828a01620003ba565b9150509295509295509295565b6200051e816200068d565b82525050565b600081546200053381620006f7565b6200053f81866200067c565b945060018216600081146200055d57600181146200057057620005a7565b60ff1983168652602086019350620005a7565b6200057b8562000667565b60005b838110156200059f578154818901526001820191506020810190506200057e565b808801955050505b50505092915050565b6000602082019050620005c7600083018462000513565b92915050565b60006040820190508181036000830152620005e9818562000524565b90508181036020830152620005ff818462000524565b90509392505050565b60006200061462000627565b90506200062282826200072d565b919050565b6000604051905090565b600067ffffffffffffffff8211156200064f576200064e62000792565b5b6200065a82620007c1565b9050602081019050919050565b60008190508160005260206000209050919050565b600082825260208201905092915050565b60006200069a82620006a1565b9050919050565b600073ffffffffffffffffffffffffffffffffffffffff82169050919050565b60005b83811015620006e1578082015181840152602081019050620006c4565b83811115620006f1576000848401525b50505050565b600060028204905060018216806200071057607f821691505b6020821081141562000727576200072662000763565b5b50919050565b6200073882620007c1565b810181811067ffffffffffffffff821117156200075a576200075962000792565b5b80604052505050565b7f4e487b7100000000000000000000000000000000000000000000000000000000600052602260045260246000fd5b7f4e487b7100000000000000000000000000000000000000000000000000000000600052604160045260246000fd5b6000601f19601f8301169050919050565b610aa980620007e26000396000f3fe608060405234801561001057600080fd5b506004361061009e5760003560e01c8063715018a611610066578063715018a61461013957806383a2325d146101435780638da5cb5b14610161578063f2fde38b1461017f578063f516b4221461019b5761009e565b806306fdde03146100a3578063232982ae146100c1578063573a5353146100df57806361fac54d146100fd5780636e3f7f6c1461011b575b600080fd5b6100ab6101b9565b6040516100b8919061088f565b60405180910390f35b6100c9610247565b6040516100d6919061088f565b60405180910390f35b6100e76102d5565b6040516100f4919061088f565b60405180910390f35b610105610363565b604051610112919061088f565b60405180910390f35b6101236103f1565b604051610130919061088f565b60405180910390f35b61014161047f565b005b61014b610507565b6040516101589190610874565b60405180910390f35b61016961052d565b6040516101769190610874565b60405180910390f35b610199600480360381019061019491906107bd565b610556565b005b6101a361064e565b6040516101b0919061088f565b60405180910390f35b600280546101c690610972565b80601f01602080910402602001604051908101604052809291908181526020018280546101f290610972565b801561023f5780601f106102145761010080835404028352916020019161023f565b820191906000526020600020905b81548152906001019060200180831161022257829003601f168201915b505050505081565b6006805461025490610972565b80601f016020809104026020016040519081016040528092919081815260200182805461028090610972565b80156102cd5780601f106102a2576101008083540402835291602001916102cd565b820191906000526020600020905b8154815290600101906020018083116102b057829003601f168201915b505050505081565b600580546102e290610972565b80601f016020809104026020016040519081016040528092919081815260200182805461030e90610972565b801561035b5780601f106103305761010080835404028352916020019161035b565b820191906000526020600020905b81548152906001019060200180831161033e57829003601f168201915b505050505081565b6001805461037090610972565b80601f016020809104026020016040519081016040528092919081815260200182805461039c90610972565b80156103e95780601f106103be576101008083540402835291602001916103e9565b820191906000526020600020905b8154815290600101906020018083116103cc57829003601f168201915b505050505081565b600480546103fe90610972565b80601f016020809104026020016040519081016040528092919081815260200182805461042a90610972565b80156104775780601f1061044c57610100808354040283529160200191610477565b820191906000526020600020905b81548152906001019060200180831161045a57829003601f168201915b505050505081565b6104876106dc565b73ffffffffffffffffffffffffffffffffffffffff166104a561052d565b73ffffffffffffffffffffffffffffffffffffffff16146104fb576040517f08c379a00000000000000000000000000000000000000000000000000000000081526004016104f2906108d1565b60405180910390fd5b61050560006106e4565b565b600760009054906101000a900473ffffffffffffffffffffffffffffffffffffffff1681565b60008060009054906101000a900473ffffffffffffffffffffffffffffffffffffffff16905090565b61055e6106dc565b73ffffffffffffffffffffffffffffffffffffffff1661057c61052d565b73ffffffffffffffffffffffffffffffffffffffff16146105d2576040517f08c379a00000000000000000000000000000000000000000000000000000000081526004016105c9906108d1565b60405180910390fd5b600073ffffffffffffffffffffffffffffffffffffffff168173ffffffffffffffffffffffffffffffffffffffff161415610642576040517f08c379a0000000000000000000000000000000000000000000000000000000008152600401610639906108b1565b60405180910390fd5b61064b816106e4565b50565b6003805461065b90610972565b80601f016020809104026020016040519081016040528092919081815260200182805461068790610972565b80156106d45780601f106106a9576101008083540402835291602001916106d4565b820191906000526020600020905b8154815290600101906020018083116106b757829003601f168201915b505050505081565b600033905090565b60008060009054906101000a900473ffffffffffffffffffffffffffffffffffffffff169050816000806101000a81548173ffffffffffffffffffffffffffffffffffffffff021916908373ffffffffffffffffffffffffffffffffffffffff1602179055508173ffffffffffffffffffffffffffffffffffffffff168173ffffffffffffffffffffffffffffffffffffffff167f8be0079c531659141344cd1fd0a4f28419497f9722a3daafe3b4186f6b6457e060405160405180910390a35050565b6000813590506107b781610a5c565b92915050565b6000602082840312156107cf57600080fd5b60006107dd848285016107a8565b91505092915050565b6107ef8161090d565b82525050565b6000610800826108f1565b61080a81856108fc565b935061081a81856020860161093f565b610823816109d3565b840191505092915050565b600061083b6026836108fc565b9150610846826109e4565b604082019050919050565b600061085e6020836108fc565b915061086982610a33565b602082019050919050565b600060208201905061088960008301846107e6565b92915050565b600060208201905081810360008301526108a981846107f5565b905092915050565b600060208201905081810360008301526108ca8161082e565b9050919050565b600060208201905081810360008301526108ea81610851565b9050919050565b600081519050919050565b600082825260208201905092915050565b60006109188261091f565b9050919050565b600073ffffffffffffffffffffffffffffffffffffffff82169050919050565b60005b8381101561095d578082015181840152602081019050610942565b8381111561096c576000848401525b50505050565b6000600282049050600182168061098a57607f821691505b6020821081141561099e5761099d6109a4565b5b50919050565b7f4e487b7100000000000000000000000000000000000000000000000000000000600052602260045260246000fd5b6000601f19601f8301169050919050565b7f4f776e61626c653a206e6577206f776e657220697320746865207a65726f206160008201527f6464726573730000000000000000000000000000000000000000000000000000602082015250565b7f4f776e61626c653a2063616c6c6572206973206e6f7420746865206f776e6572600082015250565b610a658161090d565b8114610a7057600080fd5b5056fea2646970667358221220bb51f333930cc97dee1bdcd812e4f14f3e9bc5d5547f5f68e02cdd215a9e0c1064736f6c6343000804003360806040523480156200001157600080fd5b506040516200383f3803806200383f833981810160405281019062000037919062000285565b818181600090805190602001906200005192919062000163565b5080600190805190602001906200006a92919062000163565b5050506200008d620000816200009560201b60201c565b6200009d60201b60201c565b505062000468565b600033905090565b6000600a60009054906101000a900473ffffffffffffffffffffffffffffffffffffffff16905081600a60006101000a81548173ffffffffffffffffffffffffffffffffffffffff021916908373ffffffffffffffffffffffffffffffffffffffff1602179055508173ffffffffffffffffffffffffffffffffffffffff168173ffffffffffffffffffffffffffffffffffffffff167f8be0079c531659141344cd1fd0a4f28419497f9722a3daafe3b4186f6b6457e060405160405180910390a35050565b82805462000171906200038d565b90600052602060002090601f016020900481019282620001955760008555620001e1565b82601f10620001b057805160ff1916838001178555620001e1565b82800160010185558215620001e1579182015b82811115620001e0578251825591602001919060010190620001c3565b5b509050620001f09190620001f4565b5090565b5b808211156200020f576000816000905550600101620001f5565b5090565b60006200022a620002248462000321565b620002f8565b9050828152602081018484840111156200024357600080fd5b6200025084828562000357565b509392505050565b600082601f8301126200026a57600080fd5b81516200027c84826020860162000213565b91505092915050565b600080604083850312156200029957600080fd5b600083015167ffffffffffffffff811115620002b457600080fd5b620002c28582860162000258565b925050602083015167ffffffffffffffff811115620002e057600080fd5b620002ee8582860162000258565b9150509250929050565b60006200030462000317565b9050620003128282620003c3565b919050565b6000604051905090565b600067ffffffffffffffff8211156200033f576200033e62000428565b5b6200034a8262000457565b9050602081019050919050565b60005b83811015620003775780820151818401526020810190506200035a565b8381111562000387576000848401525b50505050565b60006002820490506001821680620003a657607f821691505b60208210811415620003bd57620003bc620003f9565b5b50919050565b620003ce8262000457565b810181811067ffffffffffffffff82111715620003f057620003ef62000428565b5b80604052505050565b7f4e487b7100000000000000000000000000000000000000000000000000000000600052602260045260246000fd5b7f4e487b7100000000000000000000000000000000000000000000000000000000600052604160045260246000fd5b6000601f19601f8301169050919050565b6133c780620004786000396000f3fe6080604052600436106101445760003560e01c80636352211e116100b657806395d89b411161006f57806395d89b411461049f578063a22cb465146104ca578063b88d4fde146104f3578063c87b56dd1461051c578063e985e9c514610559578063f2fde38b146105965761014b565b80636352211e1461036957806370a08231146103a6578063715018a6146103e357806372b3b620146103fa57806376a17510146104375780638da5cb5b146104745761014b565b806323b872dd1161010857806323b872dd146102495780632f745c59146102725780633ccfd60b146102af57806342842e0e146102c657806349aa82e1146102ef5780634f6ccce71461032c5761014b565b806301ffc9a71461015057806306fdde031461018d578063081812fc146101b8578063095ea7b3146101f557806318160ddd1461021e5761014b565b3661014b57005b600080fd5b34801561015c57600080fd5b50610177600480360381019061017291906124ee565b6105bf565b6040516101849190612916565b60405180910390f35b34801561019957600080fd5b506101a26105d1565b6040516101af9190612931565b60405180910390f35b3480156101c457600080fd5b506101df60048036038101906101da9190612594565b610663565b6040516101ec91906128af565b60405180910390f35b34801561020157600080fd5b5061021c600480360381019061021791906124b2565b6106e8565b005b34801561022a57600080fd5b50610233610800565b6040516102409190612b73565b60405180910390f35b34801561025557600080fd5b50610270600480360381019061026b91906123ac565b61080d565b005b34801561027e57600080fd5b50610299600480360381019061029491906124b2565b61086d565b6040516102a69190612b73565b60405180910390f35b3480156102bb57600080fd5b506102c4610912565b005b3480156102d257600080fd5b506102ed60048036038101906102e891906123ac565b6109d7565b005b3480156102fb57600080fd5b50610316600480360381019061031191906124b2565b6109f7565b6040516103239190612916565b60405180910390f35b34801561033857600080fd5b50610353600480360381019061034e9190612594565b610a0b565b6040516103609190612b73565b60405180910390f35b34801561037557600080fd5b50610390600480360381019061038b9190612594565b610aa2565b60405161039d91906128af565b60405180910390f35b3480156103b257600080fd5b506103cd60048036038101906103c89190612347565b610b54565b6040516103da9190612b73565b60405180910390f35b3480156103ef57600080fd5b506103f8610c0c565b005b34801561040657600080fd5b50610421600480360381019061041c9190612540565b610c94565b60405161042e9190612b73565b60405180910390f35b34801561044357600080fd5b5061045e60048036038101906104599190612594565b610d02565b60405161046b9190612b73565b60405180910390f35b34801561048057600080fd5b50610489610d1f565b60405161049691906128af565b60405180910390f35b3480156104ab57600080fd5b506104b4610d49565b6040516104c19190612931565b60405180910390f35b3480156104d657600080fd5b506104f160048036038101906104ec9190612476565b610ddb565b005b3480156104ff57600080fd5b5061051a600480360381019061051591906123fb565b610f5c565b005b34801561052857600080fd5b50610543600480360381019061053e9190612594565b610fbe565b6040516105509190612931565b60405180910390f35b34801561056557600080fd5b50610580600480360381019061057b9190612370565b611063565b60405161058d9190612916565b60405180910390f35b3480156105a257600080fd5b506105bd60048036038101906105b89190612347565b6110f7565b005b60006105ca826111ef565b9050919050565b6060600080546105e090612d8d565b80601f016020809104026020016040519081016040528092919081815260200182805461060c90612d8d565b80156106595780601f1061062e57610100808354040283529160200191610659565b820191906000526020600020905b81548152906001019060200180831161063c57829003601f168201915b5050505050905090565b600061066e82611269565b6106ad576040517f08c379a00000000000000000000000000000000000000000000000000000000081526004016106a490612ab3565b60405180910390fd5b6004600083815260200190815260200160002060009054906101000a900473ffffffffffffffffffffffffffffffffffffffff169050919050565b60006106f382610aa2565b90508073ffffffffffffffffffffffffffffffffffffffff168373ffffffffffffffffffffffffffffffffffffffff161415610764576040517f08c379a000000000000000000000000000000000000000000000000000000000815260040161075b90612b13565b60405180910390fd5b8073ffffffffffffffffffffffffffffffffffffffff166107836112d5565b73ffffffffffffffffffffffffffffffffffffffff1614806107b257506107b1816107ac6112d5565b611063565b5b6107f1576040517f08c379a00000000000000000000000000000000000000000000000000000000081526004016107e890612a33565b60405180910390fd5b6107fb83836112dd565b505050565b6000600880549050905090565b61081e6108186112d5565b82611396565b61085d576040517f08c379a000000000000000000000000000000000000000000000000000000000815260040161085490612b33565b60405180910390fd5b610868838383611474565b505050565b600061087883610b54565b82106108b9576040517f08c379a00000000000000000000000000000000000000000000000000000000081526004016108b090612953565b60405180910390fd5b600660008473ffffffffffffffffffffffffffffffffffffffff1673ffffffffffffffffffffffffffffffffffffffff168152602001908152602001600020600083815260200190815260200160002054905092915050565b61091a6112d5565b73ffffffffffffffffffffffffffffffffffffffff16610938610d1f565b73ffffffffffffffffffffffffffffffffffffffff161461098e576040517f08c379a000000000000000000000000000000000000000000000000000000000815260040161098590612ad3565b60405180910390fd5b3373ffffffffffffffffffffffffffffffffffffffff166108fc479081150290604051600060405180830381858888f193505050501580156109d4573d6000803e3d6000fd5b50565b6109f283838360405180602001604052806000815250610f5c565b505050565b6000610a038383611396565b905092915050565b6000610a15610800565b8210610a56576040517f08c379a0000000000000000000000000000000000000000000000000000000008152600401610a4d90612b53565b60405180910390fd5b60088281548110610a90577f4e487b7100000000000000000000000000000000000000000000000000000000600052603260045260246000fd5b90600052602060002001549050919050565b6000806002600084815260200190815260200160002060009054906101000a900473ffffffffffffffffffffffffffffffffffffffff169050600073ffffffffffffffffffffffffffffffffffffffff168173ffffffffffffffffffffffffffffffffffffffff161415610b4b576040517f08c379a0000000000000000000000000000000000000000000000000000000008152600401610b4290612a73565b60405180910390fd5b80915050919050565b60008073ffffffffffffffffffffffffffffffffffffffff168273ffffffffffffffffffffffffffffffffffffffff161415610bc5576040517f08c379a0000000000000000000000000000000000000000000000000000000008152600401610bbc90612a53565b60405180910390fd5b600360008373ffffffffffffffffffffffffffffffffffffffff1673ffffffffffffffffffffffffffffffffffffffff168152602001908152602001600020549050919050565b610c146112d5565b73ffffffffffffffffffffffffffffffffffffffff16610c32610d1f565b73ffffffffffffffffffffffffffffffffffffffff1614610c88576040517f08c379a0000000000000000000000000000000000000000000000000000000008152600401610c7f90612ad3565b60405180910390fd5b610c9260006116d0565b565b6000610ca0600b611796565b6000610cac600b6117ac565b9050610cb833826117ba565b83600c60008381526020019081526020016000209080519060200190610cdf92919061216b565b5082600d6000838152602001908152602001600020819055508091505092915050565b6000600d6000838152602001908152602001600020549050919050565b6000600a60009054906101000a900473ffffffffffffffffffffffffffffffffffffffff16905090565b606060018054610d5890612d8d565b80601f0160208091040260200160405190810160405280929190818152602001828054610d8490612d8d565b8015610dd15780601f10610da657610100808354040283529160200191610dd1565b820191906000526020600020905b815481529060010190602001808311610db457829003601f168201915b5050505050905090565b610de36112d5565b73ffffffffffffffffffffffffffffffffffffffff168273ffffffffffffffffffffffffffffffffffffffff161415610e51576040517f08c379a0000000000000000000000000000000000000000000000000000000008152600401610e48906129f3565b60405180910390fd5b8060056000610e5e6112d5565b73ffffffffffffffffffffffffffffffffffffffff1673ffffffffffffffffffffffffffffffffffffffff16815260200190815260200160002060008473ffffffffffffffffffffffffffffffffffffffff1673ffffffffffffffffffffffffffffffffffffffff16815260200190815260200160002060006101000a81548160ff0219169083151502179055508173ffffffffffffffffffffffffffffffffffffffff16610f0b6112d5565b73ffffffffffffffffffffffffffffffffffffffff167f17307eab39ab6107e8899845ad3d59bd9653f200f220920489ca2b5937696c3183604051610f509190612916565b60405180910390a35050565b610f6d610f676112d5565b83611396565b610fac576040517f08c379a0000000000000000000000000000000000000000000000000000000008152600401610fa390612b33565b60405180910390fd5b610fb884848484611988565b50505050565b6060600c60008381526020019081526020016000208054610fde90612d8d565b80601f016020809104026020016040519081016040528092919081815260200182805461100a90612d8d565b80156110575780601f1061102c57610100808354040283529160200191611057565b820191906000526020600020905b81548152906001019060200180831161103a57829003601f168201915b50505050509050919050565b6000600560008473ffffffffffffffffffffffffffffffffffffffff1673ffffffffffffffffffffffffffffffffffffffff16815260200190815260200160002060008373ffffffffffffffffffffffffffffffffffffffff1673ffffffffffffffffffffffffffffffffffffffff16815260200190815260200160002060009054906101000a900460ff16905092915050565b6110ff6112d5565b73ffffffffffffffffffffffffffffffffffffffff1661111d610d1f565b73ffffffffffffffffffffffffffffffffffffffff1614611173576040517f08c379a000000000000000000000000000000000000000000000000000000000815260040161116a90612ad3565b60405180910390fd5b600073ffffffffffffffffffffffffffffffffffffffff168173ffffffffffffffffffffffffffffffffffffffff1614156111e3576040517f08c379a00000000000000000000000000000000000000000000000000000000081526004016111da90612993565b60405180910390fd5b6111ec816116d0565b50565b60007f780e9d63000000000000000000000000000000000000000000000000000000007bffffffffffffffffffffffffffffffffffffffffffffffffffffffff1916827bffffffffffffffffffffffffffffffffffffffffffffffffffffffff191614806112625750611261826119e4565b5b9050919050565b60008073ffffffffffffffffffffffffffffffffffffffff166002600084815260200190815260200160002060009054906101000a900473ffffffffffffffffffffffffffffffffffffffff1673ffffffffffffffffffffffffffffffffffffffff1614159050919050565b600033905090565b816004600083815260200190815260200160002060006101000a81548173ffffffffffffffffffffffffffffffffffffffff021916908373ffffffffffffffffffffffffffffffffffffffff160217905550808273ffffffffffffffffffffffffffffffffffffffff1661135083610aa2565b73ffffffffffffffffffffffffffffffffffffffff167f8c5be1e5ebec7d5bd14f71427d1e84f3dd0314c0f7b2291e5b200ac8c7c3b92560405160405180910390a45050565b60006113a182611269565b6113e0576040517f08c379a00000000000000000000000000000000000000000000000000000000081526004016113d790612a13565b60405180910390fd5b60006113eb83610aa2565b90508073ffffffffffffffffffffffffffffffffffffffff168473ffffffffffffffffffffffffffffffffffffffff16148061145a57508373ffffffffffffffffffffffffffffffffffffffff1661144284610663565b73ffffffffffffffffffffffffffffffffffffffff16145b8061146b575061146a8185611063565b5b91505092915050565b8273ffffffffffffffffffffffffffffffffffffffff1661149482610aa2565b73ffffffffffffffffffffffffffffffffffffffff16146114ea576040517f08c379a00000000000000000000000000000000000000000000000000000000081526004016114e190612af3565b60405180910390fd5b600073ffffffffffffffffffffffffffffffffffffffff168273ffffffffffffffffffffffffffffffffffffffff16141561155a576040517f08c379a0000000000000000000000000000000000000000000000000000000008152600401611551906129d3565b60405180910390fd5b611565838383611ac6565b6115706000826112dd565b6001600360008573ffffffffffffffffffffffffffffffffffffffff1673ffffffffffffffffffffffffffffffffffffffff16815260200190815260200160002060008282546115c09190612ca3565b925050819055506001600360008473ffffffffffffffffffffffffffffffffffffffff1673ffffffffffffffffffffffffffffffffffffffff16815260200190815260200160002060008282546116179190612c4d565b92505081905550816002600083815260200190815260200160002060006101000a81548173ffffffffffffffffffffffffffffffffffffffff021916908373ffffffffffffffffffffffffffffffffffffffff160217905550808273ffffffffffffffffffffffffffffffffffffffff168473ffffffffffffffffffffffffffffffffffffffff167fddf252ad1be2c89b69c2b068fc378daa952ba7f163c4a11628f55a4df523b3ef60405160405180910390a4505050565b6000600a60009054906101000a900473ffffffffffffffffffffffffffffffffffffffff16905081600a60006101000a81548173ffffffffffffffffffffffffffffffffffffffff021916908373ffffffffffffffffffffffffffffffffffffffff1602179055508173ffffffffffffffffffffffffffffffffffffffff168173ffffffffffffffffffffffffffffffffffffffff167f8be0079c531659141344cd1fd0a4f28419497f9722a3daafe3b4186f6b6457e060405160405180910390a35050565b6001816000016000828254019250508190555050565b600081600001549050919050565b600073ffffffffffffffffffffffffffffffffffffffff168273ffffffffffffffffffffffffffffffffffffffff16141561182a576040517f08c379a000000000000000000000000000000000000000000000000000000000815260040161182190612a93565b60405180910390fd5b61183381611269565b15611873576040517f08c379a000000000000000000000000000000000000000000000000000000000815260040161186a906129b3565b60405180910390fd5b61187f60008383611ac6565b6001600360008473ffffffffffffffffffffffffffffffffffffffff1673ffffffffffffffffffffffffffffffffffffffff16815260200190815260200160002060008282546118cf9190612c4d565b92505081905550816002600083815260200190815260200160002060006101000a81548173ffffffffffffffffffffffffffffffffffffffff021916908373ffffffffffffffffffffffffffffffffffffffff160217905550808273ffffffffffffffffffffffffffffffffffffffff16600073ffffffffffffffffffffffffffffffffffffffff167fddf252ad1be2c89b69c2b068fc378daa952ba7f163c4a11628f55a4df523b3ef60405160405180910390a45050565b611993848484611474565b61199f84848484611bda565b6119de576040517f08c379a00000000000000000000000000000000000000000000000000000000081526004016119d590612973565b60405180910390fd5b50505050565b60007f80ac58cd000000000000000000000000000000000000000000000000000000007bffffffffffffffffffffffffffffffffffffffffffffffffffffffff1916827bffffffffffffffffffffffffffffffffffffffffffffffffffffffff19161480611aaf57507f5b5e139f000000000000000000000000000000000000000000000000000000007bffffffffffffffffffffffffffffffffffffffffffffffffffffffff1916827bffffffffffffffffffffffffffffffffffffffffffffffffffffffff1916145b80611abf5750611abe82611d71565b5b9050919050565b611ad1838383611ddb565b600073ffffffffffffffffffffffffffffffffffffffff168373ffffffffffffffffffffffffffffffffffffffff161415611b1457611b0f81611de0565b611b53565b8173ffffffffffffffffffffffffffffffffffffffff168373ffffffffffffffffffffffffffffffffffffffff1614611b5257611b518382611e29565b5b5b600073ffffffffffffffffffffffffffffffffffffffff168273ffffffffffffffffffffffffffffffffffffffff161415611b9657611b9181611f96565b611bd5565b8273ffffffffffffffffffffffffffffffffffffffff168273ffffffffffffffffffffffffffffffffffffffff1614611bd457611bd382826120d9565b5b5b505050565b6000611bfb8473ffffffffffffffffffffffffffffffffffffffff16612158565b15611d64578373ffffffffffffffffffffffffffffffffffffffff1663150b7a02611c246112d5565b8786866040518563ffffffff1660e01b8152600401611c4694939291906128ca565b602060405180830381600087803b158015611c6057600080fd5b505af1925050508015611c9157506040513d601f19601f82011682018060405250810190611c8e9190612517565b60015b611d14573d8060008114611cc1576040519150601f19603f3d011682016040523d82523d6000602084013e611cc6565b606091505b50600081511415611d0c576040517f08c379a0000000000000000000000000000000000000000000000000000000008152600401611d0390612973565b60405180910390fd5b805181602001fd5b63150b7a0260e01b7bffffffffffffffffffffffffffffffffffffffffffffffffffffffff1916817bffffffffffffffffffffffffffffffffffffffffffffffffffffffff191614915050611d69565b600190505b949350505050565b60007f01ffc9a7000000000000000000000000000000000000000000000000000000007bffffffffffffffffffffffffffffffffffffffffffffffffffffffff1916827bffffffffffffffffffffffffffffffffffffffffffffffffffffffff1916149050919050565b505050565b6008805490506009600083815260200190815260200160002081905550600881908060018154018082558091505060019003906000526020600020016000909190919091505550565b60006001611e3684610b54565b611e409190612ca3565b9050600060076000848152602001908152602001600020549050818114611f25576000600660008673ffffffffffffffffffffffffffffffffffffffff1673ffffffffffffffffffffffffffffffffffffffff168152602001908152602001600020600084815260200190815260200160002054905080600660008773ffffffffffffffffffffffffffffffffffffffff1673ffffffffffffffffffffffffffffffffffffffff168152602001908152602001600020600084815260200190815260200160002081905550816007600083815260200190815260200160002081905550505b6007600084815260200190815260200160002060009055600660008573ffffffffffffffffffffffffffffffffffffffff1673ffffffffffffffffffffffffffffffffffffffff16815260200190815260200160002060008381526020019081526020016000206000905550505050565b60006001600880549050611faa9190612ca3565b9050600060096000848152602001908152602001600020549050600060088381548110612000577f4e487b7100000000000000000000000000000000000000000000000000000000600052603260045260246000fd5b906000526020600020015490508060088381548110612048577f4e487b7100000000000000000000000000000000000000000000000000000000600052603260045260246000fd5b9060005260206000200181905550816009600083815260200190815260200160002081905550600960008581526020019081526020016000206000905560088054806120bd577f4e487b7100000000000000000000000000000000000000000000000000000000600052603160045260246000fd5b6001900381819060005260206000200160009055905550505050565b60006120e483610b54565b905081600660008573ffffffffffffffffffffffffffffffffffffffff1673ffffffffffffffffffffffffffffffffffffffff168152602001908152602001600020600083815260200190815260200160002081905550806007600084815260200190815260200160002081905550505050565b600080823b905060008111915050919050565b82805461217790612d8d565b90600052602060002090601f01602090048101928261219957600085556121e0565b82601f106121b257805160ff19168380011785556121e0565b828001600101855582156121e0579182015b828111156121df5782518255916020019190600101906121c4565b5b5090506121ed91906121f1565b5090565b5b8082111561220a5760008160009055506001016121f2565b5090565b600061222161221c84612bb3565b612b8e565b90508281526020810184848401111561223957600080fd5b612244848285612d4b565b509392505050565b600061225f61225a84612be4565b612b8e565b90508281526020810184848401111561227757600080fd5b612282848285612d4b565b509392505050565b60008135905061229981613335565b92915050565b6000813590506122ae8161334c565b92915050565b6000813590506122c381613363565b92915050565b6000815190506122d881613363565b92915050565b600082601f8301126122ef57600080fd5b81356122ff84826020860161220e565b91505092915050565b600082601f83011261231957600080fd5b813561232984826020860161224c565b91505092915050565b6000813590506123418161337a565b92915050565b60006020828403121561235957600080fd5b60006123678482850161228a565b91505092915050565b6000806040838503121561238357600080fd5b60006123918582860161228a565b92505060206123a28582860161228a565b9150509250929050565b6000806000606084860312156123c157600080fd5b60006123cf8682870161228a565b93505060206123e08682870161228a565b92505060406123f186828701612332565b9150509250925092565b6000806000806080858703121561241157600080fd5b600061241f8782880161228a565b94505060206124308782880161228a565b935050604061244187828801612332565b925050606085013567ffffffffffffffff81111561245e57600080fd5b61246a878288016122de565b91505092959194509250565b6000806040838503121561248957600080fd5b60006124978582860161228a565b92505060206124a88582860161229f565b9150509250929050565b600080604083850312156124c557600080fd5b60006124d38582860161228a565b92505060206124e485828601612332565b9150509250929050565b60006020828403121561250057600080fd5b600061250e848285016122b4565b91505092915050565b60006020828403121561252957600080fd5b6000612537848285016122c9565b91505092915050565b6000806040838503121561255357600080fd5b600083013567ffffffffffffffff81111561256d57600080fd5b61257985828601612308565b925050602061258a85828601612332565b9150509250929050565b6000602082840312156125a657600080fd5b60006125b484828501612332565b91505092915050565b6125c681612cd7565b82525050565b6125d581612ce9565b82525050565b60006125e682612c15565b6125f08185612c2b565b9350612600818560208601612d5a565b61260981612e7d565b840191505092915050565b600061261f82612c20565b6126298185612c3c565b9350612639818560208601612d5a565b61264281612e7d565b840191505092915050565b600061265a602b83612c3c565b915061266582612e8e565b604082019050919050565b600061267d603283612c3c565b915061268882612edd565b604082019050919050565b60006126a0602683612c3c565b91506126ab82612f2c565b604082019050919050565b60006126c3601c83612c3c565b91506126ce82612f7b565b602082019050919050565b60006126e6602483612c3c565b91506126f182612fa4565b604082019050919050565b6000612709601983612c3c565b915061271482612ff3565b602082019050919050565b600061272c602c83612c3c565b91506127378261301c565b604082019050919050565b600061274f603883612c3c565b915061275a8261306b565b604082019050919050565b6000612772602a83612c3c565b915061277d826130ba565b604082019050919050565b6000612795602983612c3c565b91506127a082613109565b604082019050919050565b60006127b8602083612c3c565b91506127c382613158565b602082019050919050565b60006127db602c83612c3c565b91506127e682613181565b604082019050919050565b60006127fe602083612c3c565b9150612809826131d0565b602082019050919050565b6000612821602983612c3c565b915061282c826131f9565b604082019050919050565b6000612844602183612c3c565b915061284f82613248565b604082019050919050565b6000612867603183612c3c565b915061287282613297565b604082019050919050565b600061288a602c83612c3c565b9150612895826132e6565b604082019050919050565b6128a981612d41565b82525050565b60006020820190506128c460008301846125bd565b92915050565b60006080820190506128df60008301876125bd565b6128ec60208301866125bd565b6128f960408301856128a0565b818103606083015261290b81846125db565b905095945050505050565b600060208201905061292b60008301846125cc565b92915050565b6000602082019050818103600083015261294b8184612614565b905092915050565b6000602082019050818103600083015261296c8161264d565b9050919050565b6000602082019050818103600083015261298c81612670565b9050919050565b600060208201905081810360008301526129ac81612693565b9050919050565b600060208201905081810360008301526129cc816126b6565b9050919050565b600060208201905081810360008301526129ec816126d9565b9050919050565b60006020820190508181036000830152612a0c816126fc565b9050919050565b60006020820190508181036000830152612a2c8161271f565b9050919050565b60006020820190508181036000830152612a4c81612742565b9050919050565b60006020820190508181036000830152612a6c81612765565b9050919050565b60006020820190508181036000830152612a8c81612788565b9050919050565b60006020820190508181036000830152612aac816127ab565b9050919050565b60006020820190508181036000830152612acc816127ce565b9050919050565b60006020820190508181036000830152612aec816127f1565b9050919050565b60006020820190508181036000830152612b0c81612814565b9050919050565b60006020820190508181036000830152612b2c81612837565b9050919050565b60006020820190508181036000830152612b4c8161285a565b9050919050565b60006020820190508181036000830152612b6c8161287d565b9050919050565b6000602082019050612b8860008301846128a0565b92915050565b6000612b98612ba9565b9050612ba48282612dbf565b919050565b6000604051905090565b600067ffffffffffffffff821115612bce57612bcd612e4e565b5b612bd782612e7d565b9050602081019050919050565b600067ffffffffffffffff821115612bff57612bfe612e4e565b5b612c0882612e7d565b9050602081019050919050565b600081519050919050565b600081519050919050565b600082825260208201905092915050565b600082825260208201905092915050565b6000612c5882612d41565b9150612c6383612d41565b9250827fffffffffffffffffffffffffffffffffffffffffffffffffffffffffffffffff03821115612c9857612c97612df0565b5b828201905092915050565b6000612cae82612d41565b9150612cb983612d41565b925082821015612ccc57612ccb612df0565b5b828203905092915050565b6000612ce282612d21565b9050919050565b60008115159050919050565b60007fffffffff0000000000000000000000000000000000000000000000000000000082169050919050565b600073ffffffffffffffffffffffffffffffffffffffff82169050919050565b6000819050919050565b82818337600083830152505050565b60005b83811015612d78578082015181840152602081019050612d5d565b83811115612d87576000848401525b50505050565b60006002820490506001821680612da557607f821691505b60208210811415612db957612db8612e1f565b5b50919050565b612dc882612e7d565b810181811067ffffffffffffffff82111715612de757612de6612e4e565b5b80604052505050565b7f4e487b7100000000000000000000000000000000000000000000000000000000600052601160045260246000fd5b7f4e487b7100000000000000000000000000000000000000000000000000000000600052602260045260246000fd5b7f4e487b7100000000000000000000000000000000000000000000000000000000600052604160045260246000fd5b6000601f19601f8301169050919050565b7f455243373231456e756d657261626c653a206f776e657220696e646578206f7560008201527f74206f6620626f756e6473000000000000000000000000000000000000000000602082015250565b7f4552433732313a207472616e7366657220746f206e6f6e20455243373231526560008201527f63656976657220696d706c656d656e7465720000000000000000000000000000602082015250565b7f4f776e61626c653a206e6577206f776e657220697320746865207a65726f206160008201527f6464726573730000000000000000000000000000000000000000000000000000602082015250565b7f4552433732313a20746f6b656e20616c7265616479206d696e74656400000000600082015250565b7f4552433732313a207472616e7366657220746f20746865207a65726f2061646460008201527f7265737300000000000000000000000000000000000000000000000000000000602082015250565b7f4552433732313a20617070726f766520746f2063616c6c657200000000000000600082015250565b7f4552433732313a206f70657261746f7220717565727920666f72206e6f6e657860008201527f697374656e7420746f6b656e0000000000000000000000000000000000000000602082015250565b7f4552433732313a20617070726f76652063616c6c6572206973206e6f74206f7760008201527f6e6572206e6f7220617070726f76656420666f7220616c6c0000000000000000602082015250565b7f4552433732313a2062616c616e636520717565727920666f7220746865207a6560008201527f726f206164647265737300000000000000000000000000000000000000000000602082015250565b7f4552433732313a206f776e657220717565727920666f72206e6f6e657869737460008201527f656e7420746f6b656e0000000000000000000000000000000000000000000000602082015250565b7f4552433732313a206d696e7420746f20746865207a65726f2061646472657373600082015250565b7f4552433732313a20617070726f76656420717565727920666f72206e6f6e657860008201527f697374656e7420746f6b656e0000000000000000000000000000000000000000602082015250565b7f4f776e61626c653a2063616c6c6572206973206e6f7420746865206f776e6572600082015250565b7f4552433732313a207472616e73666572206f6620746f6b656e2074686174206960008201527f73206e6f74206f776e0000000000000000000000000000000000000000000000602082015250565b7f4552433732313a20617070726f76616c20746f2063757272656e74206f776e6560008201527f7200000000000000000000000000000000000000000000000000000000000000602082015250565b7f4552433732313a207472616e736665722063616c6c6572206973206e6f74206f60008201527f776e6572206e6f7220617070726f766564000000000000000000000000000000602082015250565b7f455243373231456e756d657261626c653a20676c6f62616c20696e646578206f60008201527f7574206f6620626f756e64730000000000000000000000000000000000000000602082015250565b61333e81612cd7565b811461334957600080fd5b50565b61335581612ce9565b811461336057600080fd5b50565b61336c81612cf5565b811461337757600080fd5b50565b61338381612d41565b811461338e57600080fd5b5056fea26469706673582212204ad4bfabca70f34e176fb4c02a9e27633d11f632430a42f24a09471d052fa91e64736f6c63430008040033a2646970667358221220f4075e8911857b4a9f1d07352c69411850a31d344a0c27e3794894fe72d7ae2c64736f6c63430008040033",
  "linkReferences": {},
  "deployedLinkReferences": {}
}