{
  "_format": "hh-sol-artifact-1",
  "contractName": "NFTMarket",
  "sourceName": "contracts/NFTMarket.sol",
  "abi": [
    {
      "inputs": [],
      "stateMutability": "nonpayable",
      "type": "constructor"
    },
    {
      "anonymous": false,
      "inputs": [
        {
          "indexed": true,
          "internalType": "uint256",
          "name": "itemId",
          "type": "uint256"
        },
        {
          "indexed": true,
          "internalType": "address",
          "name": "nftContract",
          "type": "address"
        },
        {
          "indexed": true,
          "internalType": "uint256",
          "name": "tokenId",
          "type": "uint256"
        },
        {
          "indexed": false,
          "internalType": "address",
          "name": "seller",
          "type": "address"
        },
        {
          "indexed": false,
          "internalType": "address",
          "name": "owner",
          "type": "address"
        },
        {
          "indexed": false,
          "internalType": "uint256",
          "name": "price",
          "type": "uint256"
        },
        {
          "indexed": false,
          "internalType": "bool",
          "name": "sold",
          "type": "bool"
        }
      ],
      "name": "MarketItemCreated",
      "type": "event"
    },
    {
      "inputs": [
        {
          "internalType": "address",
          "name": "nftContract",
          "type": "address"
        },
        {
          "internalType": "uint256",
          "name": "tokenId",
          "type": "uint256"
        },
        {
          "internalType": "uint256",
          "name": "price",
          "type": "uint256"
        }
      ],
      "name": "createMarketItem",
      "outputs": [],
      "stateMutability": "payable",
      "type": "function"
    },
    {
      "inputs": [
        {
          "internalType": "address",
          "name": "nftContract",
          "type": "address"
        },
        {
          "internalType": "uint256",
          "name": "itemId",
          "type": "uint256"
        }
      ],
      "name": "createMarketSale",
      "outputs": [],
      "stateMutability": "payable",
      "type": "function"
    },
    {
      "inputs": [],
      "name": "fetchItemsCreated",
      "outputs": [
        {
          "components": [
            {
              "internalType": "uint256",
              "name": "itemId",
              "type": "uint256"
            },
            {
              "internalType": "address",
              "name": "nftContract",
              "type": "address"
            },
            {
              "internalType": "uint256",
              "name": "tokenId",
              "type": "uint256"
            },
            {
              "internalType": "address payable",
              "name": "seller",
              "type": "address"
            },
            {
              "internalType": "address",
              "name": "owner",
              "type": "address"
            },
            {
              "internalType": "uint256",
              "name": "price",
              "type": "uint256"
            },
            {
              "internalType": "bool",
              "name": "sold",
              "type": "bool"
            }
          ],
          "internalType": "struct NFTMarket.MarketItem[]",
          "name": "",
          "type": "tuple[]"
        }
      ],
      "stateMutability": "view",
      "type": "function"
    },
    {
      "inputs": [],
      "name": "fetchMarketItems",
      "outputs": [
        {
          "components": [
            {
              "internalType": "uint256",
              "name": "itemId",
              "type": "uint256"
            },
            {
              "internalType": "address",
              "name": "nftContract",
              "type": "address"
            },
            {
              "internalType": "uint256",
              "name": "tokenId",
              "type": "uint256"
            },
            {
              "internalType": "address payable",
              "name": "seller",
              "type": "address"
            },
            {
              "internalType": "address",
              "name": "owner",
              "type": "address"
            },
            {
              "internalType": "uint256",
              "name": "price",
              "type": "uint256"
            },
            {
              "internalType": "bool",
              "name": "sold",
              "type": "bool"
            }
          ],
          "internalType": "struct NFTMarket.MarketItem[]",
          "name": "",
          "type": "tuple[]"
        }
      ],
      "stateMutability": "view",
      "type": "function"
    },
    {
      "inputs": [],
      "name": "fetchMyNFTs",
      "outputs": [
        {
          "components": [
            {
              "internalType": "uint256",
              "name": "itemId",
              "type": "uint256"
            },
            {
              "internalType": "address",
              "name": "nftContract",
              "type": "address"
            },
            {
              "internalType": "uint256",
              "name": "tokenId",
              "type": "uint256"
            },
            {
              "internalType": "address payable",
              "name": "seller",
              "type": "address"
            },
            {
              "internalType": "address",
              "name": "owner",
              "type": "address"
            },
            {
              "internalType": "uint256",
              "name": "price",
              "type": "uint256"
            },
            {
              "internalType": "bool",
              "name": "sold",
              "type": "bool"
            }
          ],
          "internalType": "struct NFTMarket.MarketItem[]",
          "name": "",
          "type": "tuple[]"
        }
      ],
      "stateMutability": "view",
      "type": "function"
    },
    {
      "inputs": [],
      "name": "getListingPrice",
      "outputs": [
        {
          "internalType": "uint256",
          "name": "",
          "type": "uint256"
        }
      ],
      "stateMutability": "view",
      "type": "function"
    },
    {
      "inputs": [
        {
          "internalType": "uint256",
          "name": "itemId",
          "type": "uint256"
        }
      ],
      "name": "getMarketItemById",
      "outputs": [
        {
          "components": [
            {
              "internalType": "uint256",
              "name": "itemId",
              "type": "uint256"
            },
            {
              "internalType": "address",
              "name": "nftContract",
              "type": "address"
            },
            {
              "internalType": "uint256",
              "name": "tokenId",
              "type": "uint256"
            },
            {
              "internalType": "address payable",
              "name": "seller",
              "type": "address"
            },
            {
              "internalType": "address",
              "name": "owner",
              "type": "address"
            },
            {
              "internalType": "uint256",
              "name": "price",
              "type": "uint256"
            },
            {
              "internalType": "bool",
              "name": "sold",
              "type": "bool"
            }
          ],
          "internalType": "struct NFTMarket.MarketItem",
          "name": "",
          "type": "tuple"
        }
      ],
      "stateMutability": "view",
      "type": "function"
    },
    {
      "inputs": [
        {
          "internalType": "uint256",
          "name": "",
          "type": "uint256"
        }
      ],
      "name": "idToMarketItem",
      "outputs": [
        {
          "internalType": "uint256",
          "name": "itemId",
          "type": "uint256"
        },
        {
          "internalType": "address",
          "name": "nftContract",
          "type": "address"
        },
        {
          "internalType": "uint256",
          "name": "tokenId",
          "type": "uint256"
        },
        {
          "internalType": "address payable",
          "name": "seller",
          "type": "address"
        },
        {
          "internalType": "address",
          "name": "owner",
          "type": "address"
        },
        {
          "internalType": "uint256",
          "name": "price",
          "type": "uint256"
        },
        {
          "internalType": "bool",
          "name": "sold",
          "type": "bool"
        }
      ],
      "stateMutability": "view",
      "type": "function"
    }
  ],
  "bytecode": "0x60806040526658d15e1762800060045534801561001b57600080fd5b50600160008190555033600360006101000a81548173ffffffffffffffffffffffffffffffffffffffff021916908373ffffffffffffffffffffffffffffffffffffffff160217905550611fb4806100746000396000f3fe60806040526004361061007b5760003560e01c806358eb2df51161004e57806358eb2df51461013e578063c23b139e1461015a578063e61a70c014610176578063f064c32e146101b95761007b565b80630f08efe01461008057806312e85585146100ab578063202e3740146100d657806353dbceb114610101575b600080fd5b34801561008c57600080fd5b506100956101e4565b6040516100a29190611adf565b60405180910390f35b3480156100b757600080fd5b506100c061050f565b6040516100cd9190611b9c565b60405180910390f35b3480156100e257600080fd5b506100eb610519565b6040516100f89190611adf565b60405180910390f35b34801561010d57600080fd5b506101286004803603810190610123919061177b565b6108c9565b6040516101359190611b81565b60405180910390f35b6101586004803603810190610153919061172c565b610a31565b005b610174600480360381019061016f91906116f0565b610d93565b005b34801561018257600080fd5b5061019d6004803603810190610198919061177b565b61116b565b6040516101b09796959493929190611bb7565b60405180910390f35b3480156101c557600080fd5b506101ce61121a565b6040516101db9190611adf565b60405180910390f35b606060006101f260016115ca565b9050600061020060026115ca565b61020a60016115ca565b6102149190611d51565b90506000808267ffffffffffffffff811115610259577f4e487b7100000000000000000000000000000000000000000000000000000000600052604160045260246000fd5b60405190808252806020026020018201604052801561029257816020015b61027f611630565b8152602001906001900390816102775790505b50905060005b84811015610504573073ffffffffffffffffffffffffffffffffffffffff16600660006001846102c89190611c70565b815260200190815260200160002060040160009054906101000a900473ffffffffffffffffffffffffffffffffffffffff1673ffffffffffffffffffffffffffffffffffffffff1614156104f1576000600660006001846103299190611c70565b81526020019081526020016000206000015490506000600660008381526020019081526020016000209050806040518060e0016040529081600082015481526020016001820160009054906101000a900473ffffffffffffffffffffffffffffffffffffffff1673ffffffffffffffffffffffffffffffffffffffff1673ffffffffffffffffffffffffffffffffffffffff168152602001600282015481526020016003820160009054906101000a900473ffffffffffffffffffffffffffffffffffffffff1673ffffffffffffffffffffffffffffffffffffffff1673ffffffffffffffffffffffffffffffffffffffff1681526020016004820160009054906101000a900473ffffffffffffffffffffffffffffffffffffffff1673ffffffffffffffffffffffffffffffffffffffff1673ffffffffffffffffffffffffffffffffffffffff168152602001600582015481526020016006820160009054906101000a900460ff1615151515815250508486815181106104d4577f4e487b7100000000000000000000000000000000000000000000000000000000600052603260045260246000fd5b60200260200101819052506001856104ec9190611c70565b945050505b80806104fc90611ddf565b915050610298565b508094505050505090565b6000600454905090565b6060600061052760016115ca565b905060008060005b838110156105d0573373ffffffffffffffffffffffffffffffffffffffff166006600060018461055f9190611c70565b815260200190815260200160002060040160009054906101000a900473ffffffffffffffffffffffffffffffffffffffff1673ffffffffffffffffffffffffffffffffffffffff1614156105bd576001836105ba9190611c70565b92505b80806105c890611ddf565b91505061052f565b5060008267ffffffffffffffff811115610613577f4e487b7100000000000000000000000000000000000000000000000000000000600052604160045260246000fd5b60405190808252806020026020018201604052801561064c57816020015b610639611630565b8152602001906001900390816106315790505b50905060005b848110156108be573373ffffffffffffffffffffffffffffffffffffffff16600660006001846106829190611c70565b815260200190815260200160002060040160009054906101000a900473ffffffffffffffffffffffffffffffffffffffff1673ffffffffffffffffffffffffffffffffffffffff1614156108ab576000600660006001846106e39190611c70565b81526020019081526020016000206000015490506000600660008381526020019081526020016000209050806040518060e0016040529081600082015481526020016001820160009054906101000a900473ffffffffffffffffffffffffffffffffffffffff1673ffffffffffffffffffffffffffffffffffffffff1673ffffffffffffffffffffffffffffffffffffffff168152602001600282015481526020016003820160009054906101000a900473ffffffffffffffffffffffffffffffffffffffff1673ffffffffffffffffffffffffffffffffffffffff1673ffffffffffffffffffffffffffffffffffffffff1681526020016004820160009054906101000a900473ffffffffffffffffffffffffffffffffffffffff1673ffffffffffffffffffffffffffffffffffffffff1673ffffffffffffffffffffffffffffffffffffffff168152602001600582015481526020016006820160009054906101000a900460ff16151515158152505084868151811061088e577f4e487b7100000000000000000000000000000000000000000000000000000000600052603260045260246000fd5b60200260200101819052506001856108a69190611c70565b945050505b80806108b690611ddf565b915050610652565b508094505050505090565b6108d1611630565b600660008381526020019081526020016000206040518060e0016040529081600082015481526020016001820160009054906101000a900473ffffffffffffffffffffffffffffffffffffffff1673ffffffffffffffffffffffffffffffffffffffff1673ffffffffffffffffffffffffffffffffffffffff168152602001600282015481526020016003820160009054906101000a900473ffffffffffffffffffffffffffffffffffffffff1673ffffffffffffffffffffffffffffffffffffffff1673ffffffffffffffffffffffffffffffffffffffff1681526020016004820160009054906101000a900473ffffffffffffffffffffffffffffffffffffffff1673ffffffffffffffffffffffffffffffffffffffff1673ffffffffffffffffffffffffffffffffffffffff168152602001600582015481526020016006820160009054906101000a900460ff1615151515815250509050919050565b60026000541415610a77576040517f08c379a0000000000000000000000000000000000000000000000000000000008152600401610a6e90611b41565b60405180910390fd5b600260008190555060008111610ac2576040517f08c379a0000000000000000000000000000000000000000000000000000000008152600401610ab990611b61565b60405180910390fd5b6004543414610b06576040517f08c379a0000000000000000000000000000000000000000000000000000000008152600401610afd90611b21565b60405180910390fd5b610b1060016115d8565b6000610b1c60016115ca565b90506040518060e001604052808281526020018573ffffffffffffffffffffffffffffffffffffffff1681526020018481526020013373ffffffffffffffffffffffffffffffffffffffff1681526020013073ffffffffffffffffffffffffffffffffffffffff16815260200183815260200160001515815250600660008381526020019081526020016000206000820151816000015560208201518160010160006101000a81548173ffffffffffffffffffffffffffffffffffffffff021916908373ffffffffffffffffffffffffffffffffffffffff1602179055506040820151816002015560608201518160030160006101000a81548173ffffffffffffffffffffffffffffffffffffffff021916908373ffffffffffffffffffffffffffffffffffffffff16021790555060808201518160040160006101000a81548173ffffffffffffffffffffffffffffffffffffffff021916908373ffffffffffffffffffffffffffffffffffffffff16021790555060a0820151816005015560c08201518160060160006101000a81548160ff0219169083151502179055509050508373ffffffffffffffffffffffffffffffffffffffff166323b872dd3330866040518463ffffffff1660e01b8152600401610cfc93929190611a63565b600060405180830381600087803b158015610d1657600080fd5b505af1158015610d2a573d6000803e3d6000fd5b50505050828473ffffffffffffffffffffffffffffffffffffffff16827f045dfa01dcba2b36aba1d3dc4a874f4b0c5d2fbeb8d2c4b34a7d88c8d8f929d13330876000604051610d7d9493929190611a9a565b60405180910390a4506001600081905550505050565b60026000541415610dd9576040517f08c379a0000000000000000000000000000000000000000000000000000000008152600401610dd090611b41565b60405180910390fd5b600260008190555060006006600083815260200190815260200160002060050154905080341015610e3f576040517f08c379a0000000000000000000000000000000000000000000000000000000008152600401610e3690611b01565b60405180910390fd5b60006006600084815260200190815260200160002060020154905060006006600085815260200190815260200160002060030160009054906101000a900473ffffffffffffffffffffffffffffffffffffffff1690508473ffffffffffffffffffffffffffffffffffffffff166323b872dd3033856040518463ffffffff1660e01b8152600401610ed293929190611a63565b600060405180830381600087803b158015610eec57600080fd5b505af1158015610f00573d6000803e3d6000fd5b50505050336006600086815260200190815260200160002060040160006101000a81548173ffffffffffffffffffffffffffffffffffffffff021916908373ffffffffffffffffffffffffffffffffffffffff16021790555060016006600086815260200190815260200160002060060160006101000a81548160ff021916908315150217905550610f9260026115d8565b60008573ffffffffffffffffffffffffffffffffffffffff166376a17510846040518263ffffffff1660e01b8152600401610fcd9190611b9c565b60206040518083038186803b158015610fe557600080fd5b505afa158015610ff9573d6000803e3d6000fd5b505050506040513d601f19601f8201168201806040525081019061101d91906117a4565b90506000611047606461103984886115ee90919063ffffffff16565b61160490919063ffffffff16565b9050600061105e828761161a90919063ffffffff16565b9050600360009054906101000a900473ffffffffffffffffffffffffffffffffffffffff1673ffffffffffffffffffffffffffffffffffffffff166108fc6004549081150290604051600060405180830381858888f193505050501580156110ca573d6000803e3d6000fd5b508373ffffffffffffffffffffffffffffffffffffffff166108fc829081150290604051600060405180830381858888f19350505050158015611111573d6000803e3d6000fd5b508773ffffffffffffffffffffffffffffffffffffffff166108fc839081150290604051600060405180830381858888f19350505050158015611158573d6000803e3d6000fd5b5050505050505060016000819055505050565b60066020528060005260406000206000915090508060000154908060010160009054906101000a900473ffffffffffffffffffffffffffffffffffffffff16908060020154908060030160009054906101000a900473ffffffffffffffffffffffffffffffffffffffff16908060040160009054906101000a900473ffffffffffffffffffffffffffffffffffffffff16908060050154908060060160009054906101000a900460ff16905087565b6060600061122860016115ca565b905060008060005b838110156112d1573373ffffffffffffffffffffffffffffffffffffffff16600660006001846112609190611c70565b815260200190815260200160002060030160009054906101000a900473ffffffffffffffffffffffffffffffffffffffff1673ffffffffffffffffffffffffffffffffffffffff1614156112be576001836112bb9190611c70565b92505b80806112c990611ddf565b915050611230565b5060008267ffffffffffffffff811115611314577f4e487b7100000000000000000000000000000000000000000000000000000000600052604160045260246000fd5b60405190808252806020026020018201604052801561134d57816020015b61133a611630565b8152602001906001900390816113325790505b50905060005b848110156115bf573373ffffffffffffffffffffffffffffffffffffffff16600660006001846113839190611c70565b815260200190815260200160002060030160009054906101000a900473ffffffffffffffffffffffffffffffffffffffff1673ffffffffffffffffffffffffffffffffffffffff1614156115ac576000600660006001846113e49190611c70565b81526020019081526020016000206000015490506000600660008381526020019081526020016000209050806040518060e0016040529081600082015481526020016001820160009054906101000a900473ffffffffffffffffffffffffffffffffffffffff1673ffffffffffffffffffffffffffffffffffffffff1673ffffffffffffffffffffffffffffffffffffffff168152602001600282015481526020016003820160009054906101000a900473ffffffffffffffffffffffffffffffffffffffff1673ffffffffffffffffffffffffffffffffffffffff1673ffffffffffffffffffffffffffffffffffffffff1681526020016004820160009054906101000a900473ffffffffffffffffffffffffffffffffffffffff1673ffffffffffffffffffffffffffffffffffffffff1673ffffffffffffffffffffffffffffffffffffffff168152602001600582015481526020016006820160009054906101000a900460ff16151515158152505084868151811061158f577f4e487b7100000000000000000000000000000000000000000000000000000000600052603260045260246000fd5b60200260200101819052506001856115a79190611c70565b945050505b80806115b790611ddf565b915050611353565b508094505050505090565b600081600001549050919050565b6001816000016000828254019250508190555050565b600081836115fc9190611cf7565b905092915050565b600081836116129190611cc6565b905092915050565b600081836116289190611d51565b905092915050565b6040518060e0016040528060008152602001600073ffffffffffffffffffffffffffffffffffffffff16815260200160008152602001600073ffffffffffffffffffffffffffffffffffffffff168152602001600073ffffffffffffffffffffffffffffffffffffffff168152602001600081526020016000151581525090565b6000813590506116c081611f50565b92915050565b6000813590506116d581611f67565b92915050565b6000815190506116ea81611f67565b92915050565b6000806040838503121561170357600080fd5b6000611711858286016116b1565b9250506020611722858286016116c6565b9150509250929050565b60008060006060848603121561174157600080fd5b600061174f868287016116b1565b9350506020611760868287016116c6565b9250506040611771868287016116c6565b9150509250925092565b60006020828403121561178d57600080fd5b600061179b848285016116c6565b91505092915050565b6000602082840312156117b657600080fd5b60006117c4848285016116db565b91505092915050565b60006117d98383611929565b60e08301905092915050565b6117ee81611d97565b82525050565b6117fd81611d97565b82525050565b61180c81611d85565b82525050565b61181b81611d85565b82525050565b600061182c82611c36565b6118368185611c4e565b935061184183611c26565b8060005b8381101561187257815161185988826117cd565b975061186483611c41565b925050600181019050611845565b5085935050505092915050565b61188881611da9565b82525050565b61189781611da9565b82525050565b60006118aa601c83611c5f565b91506118b582611e86565b602082019050919050565b60006118cd602483611c5f565b91506118d882611eaf565b604082019050919050565b60006118f0601f83611c5f565b91506118fb82611efe565b602082019050919050565b6000611913601c83611c5f565b915061191e82611f27565b602082019050919050565b60e08201600082015161193f6000850182611a45565b5060208201516119526020850182611803565b5060408201516119656040850182611a45565b50606082015161197860608501826117e5565b50608082015161198b6080850182611803565b5060a082015161199e60a0850182611a45565b5060c08201516119b160c085018261187f565b50505050565b60e0820160008201516119cd6000850182611a45565b5060208201516119e06020850182611803565b5060408201516119f36040850182611a45565b506060820151611a0660608501826117e5565b506080820151611a196080850182611803565b5060a0820151611a2c60a0850182611a45565b5060c0820151611a3f60c085018261187f565b50505050565b611a4e81611dd5565b82525050565b611a5d81611dd5565b82525050565b6000606082019050611a786000830186611812565b611a856020830185611812565b611a926040830184611a54565b949350505050565b6000608082019050611aaf6000830187611812565b611abc6020830186611812565b611ac96040830185611a54565b611ad6606083018461188e565b95945050505050565b60006020820190508181036000830152611af98184611821565b905092915050565b60006020820190508181036000830152611b1a8161189d565b9050919050565b60006020820190508181036000830152611b3a816118c0565b9050919050565b60006020820190508181036000830152611b5a816118e3565b9050919050565b60006020820190508181036000830152611b7a81611906565b9050919050565b600060e082019050611b9660008301846119b7565b92915050565b6000602082019050611bb16000830184611a54565b92915050565b600060e082019050611bcc600083018a611a54565b611bd96020830189611812565b611be66040830188611a54565b611bf360608301876117f4565b611c006080830186611812565b611c0d60a0830185611a54565b611c1a60c083018461188e565b98975050505050505050565b6000819050602082019050919050565b600081519050919050565b6000602082019050919050565b600082825260208201905092915050565b600082825260208201905092915050565b6000611c7b82611dd5565b9150611c8683611dd5565b9250827fffffffffffffffffffffffffffffffffffffffffffffffffffffffffffffffff03821115611cbb57611cba611e28565b5b828201905092915050565b6000611cd182611dd5565b9150611cdc83611dd5565b925082611cec57611ceb611e57565b5b828204905092915050565b6000611d0282611dd5565b9150611d0d83611dd5565b9250817fffffffffffffffffffffffffffffffffffffffffffffffffffffffffffffffff0483118215151615611d4657611d45611e28565b5b828202905092915050565b6000611d5c82611dd5565b9150611d6783611dd5565b925082821015611d7a57611d79611e28565b5b828203905092915050565b6000611d9082611db5565b9050919050565b6000611da282611db5565b9050919050565b60008115159050919050565b600073ffffffffffffffffffffffffffffffffffffffff82169050919050565b6000819050919050565b6000611dea82611dd5565b91507fffffffffffffffffffffffffffffffffffffffffffffffffffffffffffffffff821415611e1d57611e1c611e28565b5b600182019050919050565b7f4e487b7100000000000000000000000000000000000000000000000000000000600052601160045260246000fd5b7f4e487b7100000000000000000000000000000000000000000000000000000000600052601260045260246000fd5b7f53656e6420636f727265637420616d6f756e74206f6620657468657200000000600082015250565b7f5072696365206d75737420626520657175616c20746f206c697374696e67207060008201527f7269636500000000000000000000000000000000000000000000000000000000602082015250565b7f5265656e7472616e637947756172643a207265656e7472616e742063616c6c00600082015250565b7f5072696365206d757374206265206174206c6561737420312077656900000000600082015250565b611f5981611d85565b8114611f6457600080fd5b50565b611f7081611dd5565b8114611f7b57600080fd5b5056fea2646970667358221220fd55b65e35e19601e83ca6a0f856d61887796bb483aa4e3828e756560d43c8fe64736f6c63430008040033",
  "linkReferences": {},
  "deployedLinkReferences": {}
}